:100000000C9462000C948A000C948A000C948A0070
:100010000C948A000C948A000C948A000C948A0038
:100020000C948A000C948A000C948A000C948A0028
:100030000C948A000C948A000C948A000C948A0018
:100040000C942F030C948A000C948A000C948A0060
:100050000C948A000C948A000C948A000C948A00F8
:100060000C948A000C948A000000000024002700F1
:100070002A0000000000250028002B0000000000DE
:1000800023002600290004040404040404040202DA
:100090000202020203030303030301020408102007
:1000A0004080010204081020010204081020000012
:1000B0000008000201000003040700000000000027
:1000C0000000660411241FBECFEFD8E0DEBFCDBF15
:1000D00011E0A0E0B1E0E0E6FBE002C005900D9287
:1000E000AE33B107D9F721E0AEE3B1E001C01D9214
:1000F000A336B207E1F710E0C2E6D0E004C02197D2
:10010000FE010E94A805C136D107C9F70E947903F4
:100110000C94AE050C940000AF92BF92CF92DF9288
:10012000EF92FF920F931F93CF93DF936C017B01AC
:100130008B01040F151FEB015E01AE18BF08C0173D
:10014000D10759F06991D601ED91FC910190F081B0
:10015000E02DC6010995892B79F7C501DF91CF9173
:100160001F910F91FF90EF90DF90CF90BF90AF90D5
:100170000895833081F028F4813099F08230A9F01D
:1001800008958730A9F08830C9F08430B1F48091A7
:1001900080008F7D03C0809180008F7780938000E6
:1001A000089584B58F7784BD089584B58F7DFBCF86
:1001B0008091B0008F778093B00008958091B00057
:1001C0008F7DF9CFCF93DF93282F30E0F901E255EF
:1001D000FF4F8491F901E656FF4FD491F901EA5798
:1001E000FF4FC491CC23A1F081110E94B900EC2FE4
:1001F000F0E0EE0FFF1FE458FF4FA591B491EC9192
:10020000ED2381E090E009F480E0DF91CF91089543
:1002100080E090E0FACF1F93CF93DF93282F30E058
:10022000F901E255FF4F8491F901E656FF4FD49151
:10023000F901EA57FF4FC491CC23A9F0162F811181
:100240000E94B900EC2FF0E0EE0FFF1FEE58FF4FB9
:10025000A591B4918FB7F894EC91111108C0D09585
:10026000DE23DC938FBFDF91CF911F910895DE2BAA
:10027000F8CFCF93DF9390E0FC01E656FF4F249137
:100280008A579F4FFC0184918823D1F090E0880F1A
:10029000991FFC01E859FF4FA591B491FC01EE585C
:1002A000FF4FC591D49161110EC09FB7F8948C9106
:1002B000E22FE0958E238C932881E223E8839FBF71
:1002C000DF91CF9108958FB7F894EC91E22BEC93E6
:1002D0008FBFF6CF3FB7F8948091430190914401CE
:1002E000A0914501B091460126B5A89B05C02F3FBE
:1002F00019F00196A11DB11D3FBFBA2FA92F982F4C
:100300008827BC01CD01620F711D811D911D42E046
:10031000660F771F881F991F4A95D1F708958F920E
:100320009F92AF92BF92CF92DF92EF92FF920E9484
:100330006A014B015C0180EDC82E87E0D82EE12CCC
:10034000F12C0E946A01681979098A099B09683EA3
:10035000734081059105A8F321E0C21AD108E10894
:10036000F10888EE880E83E0981EA11CB11CC11410
:10037000D104E104F10429F7FF90EF90DF90CF90D2
:10038000BF90AF909F908F900895089590E080E087
:100390000895FC0101900020E9F73197AF01481B57
:1003A000590BBC018BE491E00C948C00CF93DF934C
:1003B000EC0160E08E810E940B0161E08E810E9461
:1003C0000B0160E08E810E940B018BE891E00197A8
:1003D000F1F7DF91CF910895CF92DF92EF92FF92E4
:1003E0000F931F93CF93DF936C017C0187E0E80E9E
:1003F000F11CD0E0C0E0062F10E0B8010C2E02C0C6
:10040000759567950A94E2F76170F70181917F0114
:100410000E940B012196C430D10579F7C601DF9106
:10042000CF911F910F91FF90EF90DF90CF900C94A0
:10043000D601CF92DF92EF92FF920F931F93CF934B
:10044000DF93EC01F62E642F8C810E940B018D81CD
:100450008F3F19F060E00E940B010F2D10E08F8597
:1004600084FF25C06E0187E0C80ED11CF12CE12C61
:10047000B8010E2C02C0759567950A94E2F7617079
:10048000F60181916F010E940B01FFEFEF1AFF0A45
:1004900088E0E816F10461F7CE01DF91CF911F915A
:1004A0000F91FF90EF90DF90CF900C94D601B801A0
:1004B00084E0759567958A95E1F7CE010E94EC017D
:1004C0006F2DCE01DF91CF911F910F91FF90EF9093
:1004D000DF90CF900C94EC0140E0682F8BE491E02A
:1004E0000C94190281E00E946C028BE39FE101975A
:1004F000F1F70895CF93DF93823029F490915A0158
:10050000986090935A0180935E0110925F0180E49D
:100510008093600180E18093610180E580936201B6
:1005200061E080914F010E943901809150018F3F1D
:1005300019F061E00E94390161E0809151010E944F
:100540003901CBE4D1E09E012B54314080915A0116
:1005500084FD0BC084E090E021962817390744F40D
:1005600061E08E810E943901EECF88E090E0F4CF07
:100570008BE39DE00197F1F760E080914F010E94CD
:100580000B0160E0809151010E940B0180915001AC
:100590008F3F19F060E00E940B0180915A0184FDA9
:1005A00034C063E08BE491E00E94EC01CBE4D6E43C
:1005B000CE010197F1F763E08BE491E00E94EC013A
:1005C0002197F1F763E08BE491E00E94EC0183E571
:1005D00092E00197F1F762E08BE491E00E94EC0178
:1005E00080915A0180620E946C0284E080935B01DA
:1005F0008CE00E946C020E94720282E080935C0197
:1006000086E0DF91CF910C946C0280620E946C02B4
:100610008BE496E40197F1F780915A0180620E9481
:100620006C0283E592E00197F1F780915A018062B4
:100630000E946C02D5CF90915E01891710F08FEF68
:10064000890FE82FF0E0E55BFE4F848980680C9409
:100650006C0241E00E94190281E090E008951F922F
:100660000F920FB60F9211242F933F938F939F9366
:10067000AF93BF9380913F0190914001A0914101C0
:10068000B091420130913E0123E0230F2D3758F500
:100690000196A11DB11D20933E0180933F019093CF
:1006A0004001A0934101B093420180914301909198
:1006B0004401A0914501B09146010196A11DB11DD3
:1006C0008093430190934401A0934501B093460168
:1006D000BF91AF919F918F913F912F910F900FBE3E
:1006E0000F901F90189526E8230F0296A11DB11DAB
:1006F000D2CF789484B5826084BD84B5816084BD96
:1007000085B5826085BD85B5816085BD80916E00AF
:10071000816080936E0010928100809181008260E0
:10072000809381008091810081608093810080911D
:1007300080008160809380008091B100846080930C
:10074000B1008091B00081608093B00080917A0008
:10075000846080937A0080917A00826080937A002E
:1007600080917A00816080937A0080917A0080681D
:1007700080937A001092C10060E082E00E9439010B
:1007800060E083E00E94390161E086E00E94390167
:1007900061E087E00E94390182E00E947A0280E0F5
:1007A0000E941B038CE091E00E94C901D2E400E0AA
:1007B00010E0D0937C0080917A00806480937A006E
:1007C00080917A0086FDFCCFF0907800C09179008E
:1007D00082E00E94E20090934A018093490183E005
:1007E0000E94E200909348018093470180E00E94BC
:1007F0001B038CE091E00E94C9017C2F6F2D072E16
:10080000000C880B990B0E9486042AE038E240EA2B
:100810005BE30E94C60420E030E040E050E40E9428
:10082000C10418160CF041C00E94720261E086E01B
:100830000E940B0180E00E941B038CE191E00E946A
:10084000C9010E948F018091490190914A0101974D
:1008500089F58091470190914801892B59F50E94B3
:10086000720261E087E00E940B0182E00E941B039C
:100870008AE291E00E94C9010E948F0180914901A2
:1008800090914A01892B51F4809147019091480140
:10089000019721F460E087E00E940B01011511052A
:1008A00009F487CF0E94000084CF60E086E00E94B8
:1008B0000B01C9CF82E00E941B0384E391E00E94F8
:1008C000C90160E087E00E940B01D8CFEBE4F1E0C2
:1008D0001382128284E091E0918380838DE084838F
:1008E0008FEF85838CE086838BE087838AE0808727
:1008F00089E0818788E082871386148615861686AC
:10090000178681E00C947A02E89409C097FB3EF4C4
:1009100090958095709561957F4F8F4F9F4F99234C
:10092000A9F0F92F96E9BB279395F69587957795CA
:100930006795B795F111F8CFFAF4BB0F11F460FF8A
:100940001BC06F5F7F4F8F4F9F4F16C0882311F0E2
:1009500096E911C0772321F09EE8872F762F05C0F6
:10096000662371F096E8862F70E060E02AF09A9591
:10097000660F771F881FDAF7880F9695879597F986
:1009800008950E94330508F48FEF08950E94D9045A
:100990000C946E050E94600538F00E94670520F0F7
:1009A000952311F00C9457050C945D0511240C94BB
:1009B000A2050E947F0570F3959FC1F3950F50E04B
:1009C000551F629FF001729FBB27F00DB11D639F01
:1009D000AA27F00DB11DAA1F649F6627B00DA11DA7
:1009E000661F829F2227B00DA11D621F739FB00D4D
:1009F000A11D621F839FA00D611D221F749F3327BD
:100A0000A00D611D231F849F600D211D822F762F55
:100A10006A2F11249F5750409AF0F1F088234AF032
:100A2000EE0FFF1FBB1F661F771F881F915050409E
:100A3000A9F79E3F510580F00C9457050C94A20530
:100A40005F3FE4F3983ED4F3869577956795B79525
:100A5000F795E7959F5FC1F7FE2B880F911D96953F
:100A6000879597F90895990F0008550FAA0BE0E8AC
:100A7000FEEF16161706E807F907C0F01216130660
:100A8000E407F50798F0621B730B840B950B39F4A0
:100A90000A2661F0232B242B252B21F408950A2606
:100AA00009F4A140A6958FEF811D811D089597F946
:100AB0009F6780E870E060E008959FEF80EC089504
:100AC00000240A941616170618060906089500242D
:100AD0000A9412161306140605060895092E0394A7
:100AE000000C11F4882352F0BB0F40F4BF2B11F41B
:100AF00060FF04C06F5F7F4F8F4F9F4F089557FD7A
:100B00009058440F551F59F05F3F71F04795880F7B
:100B100097FB991F61F09F3F79F087950895121612
:100B200013061406551FF2CF4695F1DF08C01616BE
:100B300017061806991FF1CF86957105610508946F
:100B40000895E894BB2766277727CB0197F9089586
:100B5000EE0FFF1F0590F491E02D0994F894FFCF5C
:100B60000000000029038C00C601C50143524F500C
:100B7000204D4F4E49544F52494E47004649524529
:100B80002044657465637465640044525920464985
:0E0B9000454C4400574554204649454C44000E
:00000001FF
